{
  "contractName": "BookComments",
  "abi": [
    {
      "constant": true,
      "inputs": [
        {
          "internalType": "uint256",
          "name": "",
          "type": "uint256"
        }
      ],
      "name": "comments",
      "outputs": [
        {
          "internalType": "string",
          "name": "",
          "type": "string"
        }
      ],
      "payable": false,
      "stateMutability": "view",
      "type": "function"
    },
    {
      "constant": false,
      "inputs": [
        {
          "internalType": "uint256",
          "name": "bookId",
          "type": "uint256"
        },
        {
          "internalType": "string",
          "name": "comment",
          "type": "string"
        }
      ],
      "name": "addComment",
      "outputs": [],
      "payable": false,
      "stateMutability": "nonpayable",
      "type": "function"
    },
    {
      "constant": true,
      "inputs": [
        {
          "internalType": "uint256",
          "name": "bookId",
          "type": "uint256"
        }
      ],
      "name": "getCommentIds",
      "outputs": [
        {
          "internalType": "uint256[]",
          "name": "",
          "type": "uint256[]"
        }
      ],
      "payable": false,
      "stateMutability": "view",
      "type": "function"
    }
  ],
  "bytecode": "0x608060405234801561001057600080fd5b506104c1806100206000396000f3fe608060405234801561001057600080fd5b50600436106100415760003560e01c80634ed6d4a8146100465780638ebb4c15146100c9578063aa7e568314610170575b600080fd5b6100726004803603602081101561005c57600080fd5b8101908080359060200190929190505050610235565b6040518080602001828103825283818151815260200191508051906020019060200280838360005b838110156100b557808201518184015260208101905061009a565b505050509050019250505060405180910390f35b6100f5600480360360208110156100df57600080fd5b81019080803590602001909291905050506102a0565b6040518080602001828103825283818151815260200191508051906020019080838360005b8381101561013557808201518184015260208101905061011a565b50505050905090810190601f1680156101625780820380516001836020036101000a031916815260200191505b509250505060405180910390f35b6102336004803603604081101561018657600080fd5b8101908080359060200190929190803590602001906401000000008111156101ad57600080fd5b8201836020820111156101bf57600080fd5b803590602001918460018302840111640100000000831117156101e157600080fd5b91908080601f016020809104026020016040519081016040528093929190818152602001838380828437600081840152601f19601f820116905080830192505050505050509192919290505050610359565b005b60606001600083815260200190815260200160002080548060200260200160405190810160405280929190818152602001828054801561029457602002820191906000526020600020905b815481526020019060010190808311610280575b50505050509050919050565b600081815481106102ad57fe5b906000526020600020016000915090508054600181600116156101000203166002900480601f0160208091040260200160405190810160405280929190818152602001828054600181600116156101000203166002900480156103515780601f1061032657610100808354040283529160200191610351565b820191906000526020600020905b81548152906001019060200180831161033457829003601f168201915b505050505081565b60008190806001815401808255809150509060018203906000526020600020016000909192909190915090805190602001906103969291906103e7565b50506000600160008054905003905060016000848152602001908152602001600020819080600181540180825580915050906001820390600052602060002001600090919290919091505550505050565b828054600181600116156101000203166002900490600052602060002090601f016020900481019282601f1061042857805160ff1916838001178555610456565b82800160010185558215610456579182015b8281111561045557825182559160200191906001019061043a565b5b5090506104639190610467565b5090565b61048991905b8082111561048557600081600090555060010161046d565b5090565b9056fea265627a7a72315820f2e6944fea113185c2e296a4e9f4825a728550be1880a8722702fb19062704c364736f6c63430005100032",
  "source": "pragma solidity ^0.5.0;\r\n\r\ncontract BookComments {\r\n    string[] public comments;\r\n    mapping(uint => uint[]) private bookComments;\r\n\r\n    function addComment(uint bookId, string memory comment) public {\r\n        comments.push(comment);\r\n        uint commentId = comments.length - 1;\r\n        bookComments[bookId].push(commentId);\r\n    }\r\n\r\n    function getCommentIds(uint bookId) public view returns (uint[] memory) {\r\n        return bookComments[bookId];\r\n    }\r\n}",
  "sourcePath": "C:/Users/trini/OneDrive/Documents/APS1050/pet-shop-box-master/contracts/BookComments.sol",
  "compiler": {
    "name": "solc",
    "version": "0.5.16+commit.9c3226ce.Emscripten.clang"
  },
  "schemaVersion": "3.0.22",
  "updatedAt": "2024-08-22T10:22:59.440Z",
  "networkType": "ethereum",
  "devdoc": {
    "methods": {}
  },
  "userdoc": {
    "methods": {}
  }
}