{
  "contractName": "BookStore",
  "abi": [
    {
      "constant": true,
      "inputs": [
        {
          "internalType": "string",
          "name": "",
          "type": "string"
        },
        {
          "internalType": "uint256",
          "name": "",
          "type": "uint256"
        }
      ],
      "name": "IdsByCategory",
      "outputs": [
        {
          "internalType": "uint256",
          "name": "",
          "type": "uint256"
        }
      ],
      "payable": false,
      "stateMutability": "view",
      "type": "function"
    },
    {
      "constant": true,
      "inputs": [
        {
          "internalType": "uint256",
          "name": "",
          "type": "uint256"
        }
      ],
      "name": "books",
      "outputs": [
        {
          "internalType": "uint256",
          "name": "id",
          "type": "uint256"
        },
        {
          "internalType": "string",
          "name": "title",
          "type": "string"
        },
        {
          "internalType": "string",
          "name": "author",
          "type": "string"
        },
        {
          "internalType": "string",
          "name": "category",
          "type": "string"
        },
        {
          "internalType": "uint256",
          "name": "price",
          "type": "uint256"
        },
        {
          "internalType": "address payable",
          "name": "buyer",
          "type": "address"
        },
        {
          "internalType": "uint256",
          "name": "likes",
          "type": "uint256"
        }
      ],
      "payable": false,
      "stateMutability": "view",
      "type": "function"
    },
    {
      "constant": false,
      "inputs": [
        {
          "internalType": "string",
          "name": "_title",
          "type": "string"
        },
        {
          "internalType": "string",
          "name": "_author",
          "type": "string"
        },
        {
          "internalType": "string",
          "name": "_category",
          "type": "string"
        },
        {
          "internalType": "uint256",
          "name": "_price",
          "type": "uint256"
        }
      ],
      "name": "addBook",
      "outputs": [],
      "payable": false,
      "stateMutability": "nonpayable",
      "type": "function"
    },
    {
      "constant": false,
      "inputs": [
        {
          "internalType": "uint256",
          "name": "_id",
          "type": "uint256"
        }
      ],
      "name": "likeBook",
      "outputs": [],
      "payable": false,
      "stateMutability": "nonpayable",
      "type": "function"
    },
    {
      "constant": true,
      "inputs": [
        {
          "internalType": "string",
          "name": "_category",
          "type": "string"
        }
      ],
      "name": "getIdsByCategory",
      "outputs": [
        {
          "internalType": "uint256[]",
          "name": "",
          "type": "uint256[]"
        }
      ],
      "payable": false,
      "stateMutability": "view",
      "type": "function"
    },
    {
      "constant": false,
      "inputs": [
        {
          "internalType": "uint256",
          "name": "_id",
          "type": "uint256"
        }
      ],
      "name": "buyBook",
      "outputs": [],
      "payable": true,
      "stateMutability": "payable",
      "type": "function"
    }
  ],
  "bytecode": "0x6080604052600060025534801561001557600080fd5b50610fff806100256000396000f3fe6080604052600436106100555760003560e01c806310d2e3a11461005a5780631580162f1461009557806345e6df3d146101b257806368744046146103b25780636ee2656614610586578063ff855631146105b4575b600080fd5b34801561006657600080fd5b506100936004803603602081101561007d57600080fd5b810190808035906020019092919050505061069a565b005b3480156100a157600080fd5b5061015b600480360360208110156100b857600080fd5b81019080803590602001906401000000008111156100d557600080fd5b8201836020820111156100e757600080fd5b8035906020019184600183028401116401000000008311171561010957600080fd5b91908080601f016020809104026020016040519081016040528093929190818152602001838380828437600081840152601f19601f820116905080830192505050505050509192919290505050610744565b6040518080602001828103825283818151815260200191508051906020019060200280838360005b8381101561019e578082015181840152602081019050610183565b505050509050019250505060405180910390f35b3480156101be57600080fd5b506103b0600480360360808110156101d557600080fd5b81019080803590602001906401000000008111156101f257600080fd5b82018360208201111561020457600080fd5b8035906020019184600183028401116401000000008311171561022657600080fd5b91908080601f016020809104026020016040519081016040528093929190818152602001838380828437600081840152601f19601f8201169050808301925050505050505091929192908035906020019064010000000081111561028957600080fd5b82018360208201111561029b57600080fd5b803590602001918460018302840111640100000000831117156102bd57600080fd5b91908080601f016020809104026020016040519081016040528093929190818152602001838380828437600081840152601f19601f8201169050808301925050505050505091929192908035906020019064010000000081111561032057600080fd5b82018360208201111561033257600080fd5b8035906020019184600183028401116401000000008311171561035457600080fd5b91908080601f016020809104026020016040519081016040528093929190818152602001838380828437600081840152601f19601f82011690508083019250505050505050919291929080359060200190929190505050610805565b005b3480156103be57600080fd5b506103eb600480360360208110156103d557600080fd5b8101908080359060200190929190505050610a30565b604051808881526020018060200180602001806020018781526020018673ffffffffffffffffffffffffffffffffffffffff1673ffffffffffffffffffffffffffffffffffffffff16815260200185815260200184810384528a818151815260200191508051906020019080838360005b8381101561047757808201518184015260208101905061045c565b50505050905090810190601f1680156104a45780820380516001836020036101000a031916815260200191505b50848103835289818151815260200191508051906020019080838360005b838110156104dd5780820151818401526020810190506104c2565b50505050905090810190601f16801561050a5780820380516001836020036101000a031916815260200191505b50848103825288818151815260200191508051906020019080838360005b83811015610543578082015181840152602081019050610528565b50505050905090810190601f1680156105705780820380516001836020036101000a031916815260200191505b509a505050505050505050505060405180910390f35b6105b26004803603602081101561059c57600080fd5b8101908080359060200190929190505050610c67565b005b3480156105c057600080fd5b50610684600480360360408110156105d757600080fd5b81019080803590602001906401000000008111156105f457600080fd5b82018360208201111561060657600080fd5b8035906020019184600183028401116401000000008311171561062857600080fd5b91908080601f016020809104026020016040519081016040528093929190818152602001838380828437600081840152601f19601f82011690508083019250505050505050919291929080359060200190929190505050610ee1565b6040518082815260200191505060405180910390f35b6000805490508110610714576040517f08c379a00000000000000000000000000000000000000000000000000000000081526004018080602001828103825260138152602001807f426f6f6b20646f6573206e6f742065786973740000000000000000000000000081525060200191505060405180910390fd5b60016000828154811061072357fe5b90600052602060002090600702016006016000828254019250508190555050565b60606001826040518082805190602001908083835b6020831061077c5780518252602082019150602081019050602083039250610759565b6001836020036101000a03801982511681845116808217855250505050505090500191505090815260200160405180910390208054806020026020016040519081016040528092919081815260200182805480156107f957602002820191906000526020600020905b8154815260200190600101908083116107e5575b50505050509050919050565b60006040518060e001604052806002548152602001868152602001858152602001848152602001838152602001600073ffffffffffffffffffffffffffffffffffffffff1681526020016000815250908060018154018082558091505090600182039060005260206000209060070201600090919290919091506000820151816000015560208201518160010190805190602001906108a5929190610f25565b5060408201518160020190805190602001906108c2929190610f25565b5060608201518160030190805190602001906108df929190610f25565b506080820151816004015560a08201518160050160006101000a81548173ffffffffffffffffffffffffffffffffffffffff021916908373ffffffffffffffffffffffffffffffffffffffff16021790555060c082015181600601555050506001826040518082805190602001908083835b602083106109745780518252602082019150602081019050602083039250610951565b6001836020036101000a0380198251168184511680821785525050505050509050019150509081526020016040518091039020600254908060018154018082558091505090600182039060005260206000200160009091929091909150555060016040518060000190509081526020016040518091039020600254908060018154018082558091505090600182039060005260206000200160009091929091909150555060026000815480929190600101919050555050505050565b60008181548110610a3d57fe5b9060005260206000209060070201600091509050806000015490806001018054600181600116156101000203166002900480601f016020809104026020016040519081016040528092919081815260200182805460018160011615610100020316600290048015610aef5780601f10610ac457610100808354040283529160200191610aef565b820191906000526020600020905b815481529060010190602001808311610ad257829003601f168201915b505050505090806002018054600181600116156101000203166002900480601f016020809104026020016040519081016040528092919081815260200182805460018160011615610100020316600290048015610b8d5780601f10610b6257610100808354040283529160200191610b8d565b820191906000526020600020905b815481529060010190602001808311610b7057829003601f168201915b505050505090806003018054600181600116156101000203166002900480601f016020809104026020016040519081016040528092919081815260200182805460018160011615610100020316600290048015610c2b5780601f10610c0057610100808354040283529160200191610c2b565b820191906000526020600020905b815481529060010190602001808311610c0e57829003601f168201915b5050505050908060040154908060050160009054906101000a900473ffffffffffffffffffffffffffffffffffffffff16908060060154905087565b6000805490508110610ce1576040517f08c379a00000000000000000000000000000000000000000000000000000000081526004018080602001828103825260138152602001807f426f6f6b20646f6573206e6f742065786973740000000000000000000000000081525060200191505060405180910390fd5b6000808281548110610cef57fe5b90600052602060002090600702019050600073ffffffffffffffffffffffffffffffffffffffff168160050160009054906101000a900473ffffffffffffffffffffffffffffffffffffffff1673ffffffffffffffffffffffffffffffffffffffff1614610dc5576040517f08c379a00000000000000000000000000000000000000000000000000000000081526004018080602001828103825260148152602001807f426f6f6b20697320616c726561647920736f6c6400000000000000000000000081525060200191505060405180910390fd5b8060040154341015610e3f576040517f08c379a00000000000000000000000000000000000000000000000000000000081526004018080602001828103825260178152602001807f496e73756666696369656e742066756e64732073656e7400000000000000000081525060200191505060405180910390fd5b338160050160006101000a81548173ffffffffffffffffffffffffffffffffffffffff021916908373ffffffffffffffffffffffffffffffffffffffff16021790555073c01b0b53095232c026b40b6521e37f76634e4f8073ffffffffffffffffffffffffffffffffffffffff166108fc349081150290604051600060405180830381858888f19350505050158015610edc573d6000803e3d6000fd5b505050565b6001828051602081018201805184825260208301602085012081835280955050505050508181548110610f1057fe5b90600052602060002001600091509150505481565b828054600181600116156101000203166002900490600052602060002090601f016020900481019282601f10610f6657805160ff1916838001178555610f94565b82800160010185558215610f94579182015b82811115610f93578251825591602001919060010190610f78565b5b509050610fa19190610fa5565b5090565b610fc791905b80821115610fc3576000816000905550600101610fab565b5090565b9056fea265627a7a723158207b81a461e58c63105ddc2b1a5fd6882ee0deefcfd8033b5aa61147e8020eb21e64736f6c63430005100032",
  "source": "pragma solidity ^0.5.0;\r\n\r\ncontract BookStore {\r\n    address payable constant recipient = 0xc01b0b53095232c026b40B6521e37F76634E4f80;\r\n\r\n    struct Book {\r\n        uint id;\r\n        string title;\r\n        string author;\r\n        string category;\r\n        uint price;\r\n        address payable buyer;\r\n        uint likes;\r\n    }\r\n\r\n    Book[] public books;\r\n    mapping(string => uint[]) public IdsByCategory;\r\n    uint private currentBookId = 0;\r\n\r\n    function addBook(string memory _title, string memory _author, string memory _category, uint _price) public {\r\n        books.push(Book(currentBookId, _title, _author, _category, _price, address(0), 0));\r\n        IdsByCategory[_category].push(currentBookId);\r\n        IdsByCategory[\"\"].push(currentBookId);\r\n        currentBookId++;\r\n    }\r\n\r\n    function likeBook(uint _id) public {\r\n        require(_id < books.length, \"Book does not exist\");\r\n        books[_id].likes += 1;\r\n    }\r\n\r\n    function getIdsByCategory(string memory _category) public view returns (uint[] memory) {\r\n        return IdsByCategory[_category];\r\n    }\r\n\r\n    function buyBook(uint _id) public payable {\r\n        require(_id < books.length, \"Book does not exist\");\r\n        Book storage book = books[_id];\r\n        require(book.buyer == address(0), \"Book is already sold\");\r\n        require(msg.value >= book.price, \"Insufficient funds sent\");\r\n        book.buyer = msg.sender;\r\n\r\n        recipient.transfer(msg.value);\r\n    }\r\n}\r\n",
  "sourcePath": "C:/Users/trini/OneDrive/Documents/APS1050/pet-shop-box-master/contracts/BookStore.sol",
  "compiler": {
    "name": "solc",
    "version": "0.5.16+commit.9c3226ce.Emscripten.clang"
  },
  "schemaVersion": "3.0.22",
  "updatedAt": "2024-08-22T10:22:59.437Z",
  "networkType": "ethereum",
  "devdoc": {
    "methods": {}
  },
  "userdoc": {
    "methods": {}
  }
}